{
  "_format": "hh-sol-artifact-1",
  "contractName": "ProofOfLoyalty",
  "sourceName": "contracts/ProofOfLoyalty.sol",
  "abi": [
    {
      "inputs": [
        {
          "internalType": "contract ISuperfluid",
          "name": "_host",
          "type": "address"
        },
        {
          "internalType": "address",
          "name": "_owner",
          "type": "address"
        },
        {
          "internalType": "address",
          "name": "_ooAddress",
          "type": "address"
        },
        {
          "internalType": "uint64",
          "name": "_subId",
          "type": "uint64"
        },
        {
          "internalType": "bytes32",
          "name": "_keyHash",
          "type": "bytes32"
        },
        {
          "internalType": "address",
          "name": "_vrfCoord",
          "type": "address"
        }
      ],
      "stateMutability": "nonpayable",
      "type": "constructor"
    },
    {
      "inputs": [
        {
          "internalType": "address",
          "name": "have",
          "type": "address"
        },
        {
          "internalType": "address",
          "name": "want",
          "type": "address"
        }
      ],
      "name": "OnlyCoordinatorCanFulfill",
      "type": "error"
    },
    {
      "inputs": [],
      "name": "Unauthorized",
      "type": "error"
    },
    {
      "inputs": [],
      "name": "INDEX_ID",
      "outputs": [
        {
          "internalType": "uint32",
          "name": "",
          "type": "uint32"
        }
      ],
      "stateMutability": "view",
      "type": "function"
    },
    {
      "inputs": [
        {
          "internalType": "contract IERC20",
          "name": "token",
          "type": "address"
        },
        {
          "internalType": "address",
          "name": "custodian",
          "type": "address"
        },
        {
          "internalType": "uint256",
          "name": "amount",
          "type": "uint256"
        }
      ],
      "name": "approveERC20",
      "outputs": [],
      "stateMutability": "nonpayable",
      "type": "function"
    },
    {
      "inputs": [],
      "name": "cfaV1",
      "outputs": [
        {
          "internalType": "contract ISuperfluid",
          "name": "host",
          "type": "address"
        },
        {
          "internalType": "contract IConstantFlowAgreementV1",
          "name": "cfa",
          "type": "address"
        }
      ],
      "stateMutability": "view",
      "type": "function"
    },
    {
      "inputs": [
        {
          "internalType": "address",
          "name": "_newOwner",
          "type": "address"
        }
      ],
      "name": "changeOwner",
      "outputs": [],
      "stateMutability": "nonpayable",
      "type": "function"
    },
    {
      "inputs": [],
      "name": "checkStreamEnd",
      "outputs": [
        {
          "internalType": "address[]",
          "name": "",
          "type": "address[]"
        }
      ],
      "stateMutability": "view",
      "type": "function"
    },
    {
      "inputs": [
        {
          "internalType": "bytes",
          "name": "",
          "type": "bytes"
        }
      ],
      "name": "checkUpkeep",
      "outputs": [
        {
          "internalType": "bool",
          "name": "upkeepNeeded",
          "type": "bool"
        },
        {
          "internalType": "bytes",
          "name": "performData",
          "type": "bytes"
        }
      ],
      "stateMutability": "view",
      "type": "function"
    },
    {
      "inputs": [
        {
          "internalType": "contract ISuperToken",
          "name": "_token",
          "type": "address"
        },
        {
          "internalType": "uint256",
          "name": "_amount",
          "type": "uint256"
        },
        {
          "internalType": "uint256",
          "name": "_maxAmt",
          "type": "uint256"
        },
        {
          "internalType": "uint256",
          "name": "_startDate",
          "type": "uint256"
        },
        {
          "internalType": "uint256",
          "name": "_endDate",
          "type": "uint256"
        },
        {
          "internalType": "uint256",
          "name": "_duration",
          "type": "uint256"
        },
        {
          "internalType": "contract IERC20",
          "name": "_oracleBond",
          "type": "address"
        },
        {
          "internalType": "uint256",
          "name": "_oracleReward",
          "type": "uint256"
        },
        {
          "internalType": "uint256",
          "name": "_oracleLiveness",
          "type": "uint256"
        }
      ],
      "name": "commenceCampaign",
      "outputs": [],
      "stateMutability": "nonpayable",
      "type": "function"
    },
    {
      "inputs": [
        {
          "internalType": "address",
          "name": "receiver",
          "type": "address"
        }
      ],
      "name": "deleteSubscriber",
      "outputs": [],
      "stateMutability": "nonpayable",
      "type": "function"
    },
    {
      "inputs": [],
      "name": "distribute",
      "outputs": [],
      "stateMutability": "nonpayable",
      "type": "function"
    },
    {
      "inputs": [],
      "name": "duration",
      "outputs": [
        {
          "internalType": "uint256",
          "name": "",
          "type": "uint256"
        }
      ],
      "stateMutability": "view",
      "type": "function"
    },
    {
      "inputs": [],
      "name": "endDate",
      "outputs": [
        {
          "internalType": "uint256",
          "name": "",
          "type": "uint256"
        }
      ],
      "stateMutability": "view",
      "type": "function"
    },
    {
      "inputs": [
        {
          "internalType": "address[]",
          "name": "streamEnded",
          "type": "address[]"
        }
      ],
      "name": "endSubscription",
      "outputs": [],
      "stateMutability": "nonpayable",
      "type": "function"
    },
    {
      "inputs": [],
      "name": "flowRate",
      "outputs": [
        {
          "internalType": "int96",
          "name": "",
          "type": "int96"
        }
      ],
      "stateMutability": "view",
      "type": "function"
    },
    {
      "inputs": [
        {
          "internalType": "uint256",
          "name": "requestTime",
          "type": "uint256"
        },
        {
          "internalType": "string",
          "name": "_userAccount",
          "type": "string"
        }
      ],
      "name": "getSettledPrice",
      "outputs": [
        {
          "internalType": "int256",
          "name": "",
          "type": "int256"
        }
      ],
      "stateMutability": "view",
      "type": "function"
    },
    {
      "inputs": [],
      "name": "idaV1",
      "outputs": [
        {
          "internalType": "contract ISuperfluid",
          "name": "host",
          "type": "address"
        },
        {
          "internalType": "contract IInstantDistributionAgreementV1",
          "name": "ida",
          "type": "address"
        }
      ],
      "stateMutability": "view",
      "type": "function"
    },
    {
      "inputs": [
        {
          "internalType": "contract IERC20",
          "name": "underlyingToken",
          "type": "address"
        },
        {
          "internalType": "uint8",
          "name": "underlyingDecimals",
          "type": "uint8"
        },
        {
          "internalType": "enum ISuperTokenFactory.Upgradability",
          "name": "upgradability",
          "type": "uint8"
        },
        {
          "internalType": "string",
          "name": "name",
          "type": "string"
        },
        {
          "internalType": "string",
          "name": "symbol",
          "type": "string"
        }
      ],
      "name": "makeERC20SuperToken",
      "outputs": [
        {
          "internalType": "contract ISuperToken",
          "name": "superToken",
          "type": "address"
        }
      ],
      "stateMutability": "nonpayable",
      "type": "function"
    },
    {
      "inputs": [],
      "name": "maxParticipants",
      "outputs": [
        {
          "internalType": "uint256",
          "name": "",
          "type": "uint256"
        }
      ],
      "stateMutability": "view",
      "type": "function"
    },
    {
      "inputs": [],
      "name": "numParticipants",
      "outputs": [
        {
          "internalType": "uint256",
          "name": "",
          "type": "uint256"
        }
      ],
      "stateMutability": "view",
      "type": "function"
    },
    {
      "inputs": [],
      "name": "oo",
      "outputs": [
        {
          "internalType": "contract OptimisticOracleV2Interface",
          "name": "",
          "type": "address"
        }
      ],
      "stateMutability": "view",
      "type": "function"
    },
    {
      "inputs": [],
      "name": "ooBond",
      "outputs": [
        {
          "internalType": "contract IERC20",
          "name": "",
          "type": "address"
        }
      ],
      "stateMutability": "view",
      "type": "function"
    },
    {
      "inputs": [],
      "name": "ooLiveness",
      "outputs": [
        {
          "internalType": "uint256",
          "name": "",
          "type": "uint256"
        }
      ],
      "stateMutability": "view",
      "type": "function"
    },
    {
      "inputs": [],
      "name": "ooRewardAmt",
      "outputs": [
        {
          "internalType": "uint256",
          "name": "",
          "type": "uint256"
        }
      ],
      "stateMutability": "view",
      "type": "function"
    },
    {
      "inputs": [],
      "name": "owner",
      "outputs": [
        {
          "internalType": "address",
          "name": "",
          "type": "address"
        }
      ],
      "stateMutability": "view",
      "type": "function"
    },
    {
      "inputs": [
        {
          "internalType": "address",
          "name": "",
          "type": "address"
        }
      ],
      "name": "participantDetails",
      "outputs": [
        {
          "internalType": "uint64",
          "name": "index",
          "type": "uint64"
        },
        {
          "internalType": "uint256",
          "name": "registerTime",
          "type": "uint256"
        },
        {
          "internalType": "uint256",
          "name": "endTime",
          "type": "uint256"
        },
        {
          "internalType": "string",
          "name": "twitterHandle",
          "type": "string"
        },
        {
          "internalType": "bool",
          "name": "streamStatus",
          "type": "bool"
        },
        {
          "internalType": "bool",
          "name": "blacklist",
          "type": "bool"
        }
      ],
      "stateMutability": "view",
      "type": "function"
    },
    {
      "inputs": [],
      "name": "participantIndex",
      "outputs": [
        {
          "internalType": "uint64",
          "name": "",
          "type": "uint64"
        }
      ],
      "stateMutability": "view",
      "type": "function"
    },
    {
      "inputs": [],
      "name": "perParticipant",
      "outputs": [
        {
          "internalType": "uint256",
          "name": "",
          "type": "uint256"
        }
      ],
      "stateMutability": "view",
      "type": "function"
    },
    {
      "inputs": [
        {
          "internalType": "bytes",
          "name": "performData",
          "type": "bytes"
        }
      ],
      "name": "performUpkeep",
      "outputs": [],
      "stateMutability": "nonpayable",
      "type": "function"
    },
    {
      "inputs": [],
      "name": "randomNum",
      "outputs": [
        {
          "internalType": "uint256",
          "name": "",
          "type": "uint256"
        }
      ],
      "stateMutability": "view",
      "type": "function"
    },
    {
      "inputs": [
        {
          "internalType": "uint256",
          "name": "requestId",
          "type": "uint256"
        },
        {
          "internalType": "uint256[]",
          "name": "randomWords",
          "type": "uint256[]"
        }
      ],
      "name": "rawFulfillRandomWords",
      "outputs": [],
      "stateMutability": "nonpayable",
      "type": "function"
    },
    {
      "inputs": [],
      "name": "requestId",
      "outputs": [
        {
          "internalType": "uint256",
          "name": "",
          "type": "uint256"
        }
      ],
      "stateMutability": "view",
      "type": "function"
    },
    {
      "inputs": [],
      "name": "rewardToken",
      "outputs": [
        {
          "internalType": "contract ISuperToken",
          "name": "",
          "type": "address"
        }
      ],
      "stateMutability": "view",
      "type": "function"
    },
    {
      "inputs": [
        {
          "internalType": "uint256",
          "name": "requestTime",
          "type": "uint256"
        },
        {
          "internalType": "string",
          "name": "_userAccount",
          "type": "string"
        }
      ],
      "name": "settleRequests",
      "outputs": [],
      "stateMutability": "nonpayable",
      "type": "function"
    },
    {
      "inputs": [],
      "name": "startDate",
      "outputs": [
        {
          "internalType": "uint256",
          "name": "",
          "type": "uint256"
        }
      ],
      "stateMutability": "view",
      "type": "function"
    },
    {
      "inputs": [],
      "name": "stf",
      "outputs": [
        {
          "internalType": "contract ISuperTokenFactory",
          "name": "",
          "type": "address"
        }
      ],
      "stateMutability": "view",
      "type": "function"
    },
    {
      "inputs": [
        {
          "internalType": "string",
          "name": "_twitterHandle",
          "type": "string"
        }
      ],
      "name": "subscribe",
      "outputs": [],
      "stateMutability": "nonpayable",
      "type": "function"
    },
    {
      "inputs": [
        {
          "internalType": "contract ISuperToken",
          "name": "superToken",
          "type": "address"
        },
        {
          "internalType": "uint256",
          "name": "amount",
          "type": "uint256"
        }
      ],
      "name": "upgradeERC20SuperToken",
      "outputs": [],
      "stateMutability": "nonpayable",
      "type": "function"
    },
    {
      "inputs": [
        {
          "internalType": "contract ISuperToken",
          "name": "token",
          "type": "address"
        },
        {
          "internalType": "uint256",
          "name": "amount",
          "type": "uint256"
        }
      ],
      "name": "withdrawFunds",
      "outputs": [],
      "stateMutability": "nonpayable",
      "type": "function"
    }
  ],
  "bytecode": "0x60a06040527f54727565206f722046616c73650000000000000000000000000000000000000060135561c350601960006101000a81548163ffffffff021916908363ffffffff1602179055506003601960046101000a81548161ffff021916908361ffff1602179055506001601960066101000a81548163ffffffff021916908363ffffffff1602179055503480156200009857600080fd5b5060405162005c2d38038062005c2d8339818101604052810190620000be9190620006f7565b808073ffffffffffffffffffffffffffffffffffffffff1660808173ffffffffffffffffffffffffffffffffffffffff168152505050600073ffffffffffffffffffffffffffffffffffffffff168673ffffffffffffffffffffffffffffffffffffffff160362000134576200013362000793565b5b846000806101000a81548173ffffffffffffffffffffffffffffffffffffffff021916908373ffffffffffffffffffffffffffffffffffffffff16021790555060405180604001604052808773ffffffffffffffffffffffffffffffffffffffff1681526020018773ffffffffffffffffffffffffffffffffffffffff1663b6d200de7fa9214cc96615e0085d3bb077758db69497dc2dce3b2b1e97bc93c3d18d83efd36040518263ffffffff1660e01b8152600401620001f69190620007d3565b602060405180830381865afa15801562000214573d6000803e3d6000fd5b505050506040513d601f19601f820116820180604052508101906200023a919062000835565b73ffffffffffffffffffffffffffffffffffffffff16815250600d60008201518160000160006101000a81548173ffffffffffffffffffffffffffffffffffffffff021916908373ffffffffffffffffffffffffffffffffffffffff16021790555060208201518160010160006101000a81548173ffffffffffffffffffffffffffffffffffffffff021916908373ffffffffffffffffffffffffffffffffffffffff1602179055509050508573ffffffffffffffffffffffffffffffffffffffff1663731aed6e6040518163ffffffff1660e01b8152600401602060405180830381865afa15801562000332573d6000803e3d6000fd5b505050506040513d601f19601f82011682018060405250810190620003589190620008ac565b600c60006101000a81548173ffffffffffffffffffffffffffffffffffffffff021916908373ffffffffffffffffffffffffffffffffffffffff16021790555060405180604001604052808773ffffffffffffffffffffffffffffffffffffffff1681526020018773ffffffffffffffffffffffffffffffffffffffff1663b6d200de7f8aedc3b5d4bf031e11a7e2940f7251c005698405d58e02e1c247fed3b1b3a6746040518263ffffffff1660e01b81526004016200041a9190620007d3565b602060405180830381865afa15801562000438573d6000803e3d6000fd5b505050506040513d601f19601f820116820180604052508101906200045e919062000835565b73ffffffffffffffffffffffffffffffffffffffff16815250600f60008201518160000160006101000a81548173ffffffffffffffffffffffffffffffffffffffff021916908373ffffffffffffffffffffffffffffffffffffffff16021790555060208201518160010160006101000a81548173ffffffffffffffffffffffffffffffffffffffff021916908373ffffffffffffffffffffffffffffffffffffffff16021790555090505083601260006101000a81548173ffffffffffffffffffffffffffffffffffffffff021916908373ffffffffffffffffffffffffffffffffffffffff16021790555080601760006101000a81548173ffffffffffffffffffffffffffffffffffffffff021916908373ffffffffffffffffffffffffffffffffffffffff16021790555082601760146101000a81548167ffffffffffffffff021916908367ffffffffffffffff16021790555081601881905550505050505050620008de565b600080fd5b600073ffffffffffffffffffffffffffffffffffffffff82169050919050565b6000620005fa82620005cd565b9050919050565b60006200060e82620005ed565b9050919050565b620006208162000601565b81146200062c57600080fd5b50565b600081519050620006408162000615565b92915050565b6200065181620005ed565b81146200065d57600080fd5b50565b600081519050620006718162000646565b92915050565b600067ffffffffffffffff82169050919050565b620006968162000677565b8114620006a257600080fd5b50565b600081519050620006b6816200068b565b92915050565b6000819050919050565b620006d181620006bc565b8114620006dd57600080fd5b50565b600081519050620006f181620006c6565b92915050565b60008060008060008060c08789031215620007175762000716620005c8565b5b60006200072789828a016200062f565b96505060206200073a89828a0162000660565b95505060406200074d89828a0162000660565b94505060606200076089828a01620006a5565b93505060806200077389828a01620006e0565b92505060a06200078689828a0162000660565b9150509295509295509295565b7f4e487b7100000000000000000000000000000000000000000000000000000000600052600160045260246000fd5b620007cd81620006bc565b82525050565b6000602082019050620007ea6000830184620007c2565b92915050565b6000620007fd82620005ed565b9050919050565b6200080f81620007f0565b81146200081b57600080fd5b50565b6000815190506200082f8162000804565b92915050565b6000602082840312156200084e576200084d620005c8565b5b60006200085e848285016200081e565b91505092915050565b60006200087482620005ed565b9050919050565b620008868162000867565b81146200089257600080fd5b50565b600081519050620008a6816200087b565b92915050565b600060208284031215620008c557620008c4620005c8565b5b6000620008d58482850162000895565b91505092915050565b60805161532c62000901600039600081816109a401526109f8015261532c6000f3fe608060405234801561001057600080fd5b50600436106102265760003560e01c80638afc67e511610130578063c1075329116100b8578063d3112b2e1161007c578063d3112b2e14610626578063e4fc6b6d14610645578063f630aa651461064f578063f7c618c11461066d578063ff0ddb6d1461068b57610226565b8063c107532914610592578063c24a0f8b146105ae578063c33e3c8e146105cc578063ca13bf65146105ea578063cf5abba31461060857610226565b806395309207116100ff57806395309207146105025780639701b42214610520578063a6f9dae11461053c578063a8e5e4aa14610558578063b86502d61461057457610226565b80638afc67e5146104615780638c7f0959146104915780638da5cb5b146104af5780638e1d11c5146104cd57610226565b80634585e33b116101b357806353ce7de91161018257806353ce7de9146103bc57806367c78a9f146103da5780636dee3581146103f65780636e04ff0d146104125780638921a6141461044357610226565b80634585e33b146103365780634596c0ea146103525780634e76a84614610382578063507e7888146103a057610226565b80630fb5a6b4116101fa5780630fb5a6b4146102a35780631cc8ca99146102c15780631fe543e3146102e057806324924bf7146102fc57806341e5b5421461031a57610226565b80626d6cae1461022b5780630246d24c146102495780630ae6dc02146102675780630b97bc8614610285575b600080fd5b6102336106a7565b60405161024091906132d5565b60405180910390f35b6102516106ad565b60405161025e919061336f565b60405180910390f35b61026f6106d3565b60405161027c919061345a565b60405180910390f35b61028d610944565b60405161029a91906132d5565b60405180910390f35b6102ab61094a565b6040516102b891906132d5565b60405180910390f35b6102c9610950565b6040516102d79291906134be565b60405180910390f35b6102fa60048036038101906102f59190613680565b6109a2565b005b610304610a62565b60405161031191906132d5565b60405180910390f35b610334600480360381019061032f9190613737565b610a68565b005b610350600480360381019061034b91906137ed565b610b3b565b005b61036c600480360381019061036791906138d6565b610b8e565b60405161037991906139b3565b60405180910390f35b61038a610caa565b60405161039791906132d5565b60405180910390f35b6103ba60048036038101906103b591906139ce565b610cb0565b005b6103c46111e8565b6040516103d19190613a3e565b60405180910390f35b6103f460048036038101906103ef9190613b48565b611202565b005b610410600480360381019061040b9190613bcf565b6113be565b005b61042c600480360381019061042791906137ed565b611680565b60405161043a929190613d3c565b60405180910390f35b61044b6116ce565b6040516104589190613d8d565b60405180910390f35b61047b60048036038101906104769190613737565b6116f4565b6040516104889190613dc1565b60405180910390f35b6104996117ce565b6040516104a69190613dfb565b60405180910390f35b6104b76117d3565b6040516104c49190613e25565b60405180910390f35b6104e760048036038101906104e29190613e40565b6117f7565b6040516104f996959493929190613ec2565b60405180910390f35b61050a6118e9565b60405161051791906132d5565b60405180910390f35b61053a60048036038101906105359190613e40565b6118ef565b005b61055660048036038101906105519190613e40565b611ae0565b005b610572600480360381019061056d9190613f2a565b611ba8565b005b61057c611cea565b60405161058991906132d5565b60405180910390f35b6105ac60048036038101906105a79190613f7d565b611cf0565b005b6105b6611df8565b6040516105c391906132d5565b60405180910390f35b6105d4611dfe565b6040516105e19190613fde565b60405180910390f35b6105f2611e24565b6040516105ff9190614015565b60405180910390f35b610610611e37565b60405161061d91906132d5565b60405180910390f35b61062e611e3d565b60405161063c929190614051565b60405180910390f35b61064d611e8f565b005b6106576120cd565b60405161066491906132d5565b60405180910390f35b6106756120d3565b60405161068291906139b3565b60405180910390f35b6106a560048036038101906106a09190613f7d565b6120f9565b005b601b5481565b601460009054906101000a900473ffffffffffffffffffffffffffffffffffffffff1681565b60606000600b80548060200260200160405190810160405280929190818152602001828054801561075957602002820191906000526020600020905b8160009054906101000a900473ffffffffffffffffffffffffffffffffffffffff1673ffffffffffffffffffffffffffffffffffffffff168152602001906001019080831161070f575b505050505090506000815167ffffffffffffffff81111561077d5761077c61353d565b5b6040519080825280602002602001820160405280156107ab5781602001602082028036833780820191505090505b5090506000805b835181101561092e5760008482815181106107d0576107cf61407a565b5b60200260200101519050600073ffffffffffffffffffffffffffffffffffffffff168173ffffffffffffffffffffffffffffffffffffffff161415801561086a575060011515600a60008373ffffffffffffffffffffffffffffffffffffffff1673ffffffffffffffffffffffffffffffffffffffff16815260200190815260200160002060040160009054906101000a900460ff161515145b80156108b8575042600a60008373ffffffffffffffffffffffffffffffffffffffff1673ffffffffffffffffffffffffffffffffffffffff1681526020019081526020016000206002015410155b1561091a57808484815181106108d1576108d061407a565b5b602002602001019073ffffffffffffffffffffffffffffffffffffffff16908173ffffffffffffffffffffffffffffffffffffffff16815250508280610916906140d8565b9350505b508080610926906140d8565b9150506107b2565b508251811461093b578082525b81935050505090565b60015481565b60035481565b600f8060000160009054906101000a900473ffffffffffffffffffffffffffffffffffffffff16908060010160009054906101000a900473ffffffffffffffffffffffffffffffffffffffff16905082565b7f000000000000000000000000000000000000000000000000000000000000000073ffffffffffffffffffffffffffffffffffffffff163373ffffffffffffffffffffffffffffffffffffffff1614610a5457337f00000000000000000000000000000000000000000000000000000000000000006040517f1cf993f4000000000000000000000000000000000000000000000000000000008152600401610a4b929190614120565b60405180910390fd5b610a5e8282612168565b5050565b60055481565b60008282604051602001610a7d929190614220565b6040516020818303038152906040529050601260009054906101000a900473ffffffffffffffffffffffffffffffffffffffff1673ffffffffffffffffffffffffffffffffffffffff16635e9a79a93060135487856040518563ffffffff1660e01b8152600401610af1949392919061426c565b6020604051808303816000875af1158015610b10573d6000803e3d6000fd5b505050506040513d601f19601f82011682018060405250810190610b3491906142cd565b5050505050565b6008544210610b6c57601a5460086000828254610b5891906142fa565b92505081905550610b676121a8565b610b8a565b60008282810190610b7d9190613b48565b9050610b8881611202565b505b5050565b6000600c60009054906101000a900473ffffffffffffffffffffffffffffffffffffffff1673ffffffffffffffffffffffffffffffffffffffff1663a6d0c534898989898989896040518863ffffffff1660e01b8152600401610bf79796959493929190614403565b6020604051808303816000875af1158015610c16573d6000803e3d6000fd5b505050506040513d601f19601f82011682018060405250810190610c3a919061447d565b601160006101000a81548173ffffffffffffffffffffffffffffffffffffffff021916908373ffffffffffffffffffffffffffffffffffffffff160217905550601160009054906101000a900473ffffffffffffffffffffffffffffffffffffffff169050979650505050505050565b60065481565b6001544211610cf4576040517f08c379a0000000000000000000000000000000000000000000000000000000008152600401610ceb906144f6565b60405180910390fd5b6002544210610d38576040517f08c379a0000000000000000000000000000000000000000000000000000000008152600401610d2f90614562565b60405180910390fd5b60055460065410610d7e576040517f08c379a0000000000000000000000000000000000000000000000000000000008152600401610d75906145ce565b60405180910390fd5b60001515600a60003373ffffffffffffffffffffffffffffffffffffffff1673ffffffffffffffffffffffffffffffffffffffff16815260200190815260200160002060040160019054906101000a900460ff16151514610dde57600080fd5b610e2733601160009054906101000a900473ffffffffffffffffffffffffffffffffffffffff16600960009054906101000a9004600b0b600d6122a2909392919063ffffffff16565b6000610e66601160009054906101000a900473ffffffffffffffffffffffffffffffffffffffff1630600033600f61230290949392919063ffffffff16565b506fffffffffffffffffffffffffffffffff1692505050610ec6601160009054906101000a900473ffffffffffffffffffffffffffffffffffffffff16600033600185610eb391906142fa565b600f6123c090949392919063ffffffff16565b600760009054906101000a900467ffffffffffffffff16600a60003373ffffffffffffffffffffffffffffffffffffffff1673ffffffffffffffffffffffffffffffffffffffff16815260200190815260200160002060000160006101000a81548167ffffffffffffffff021916908367ffffffffffffffff16021790555042600a60003373ffffffffffffffffffffffffffffffffffffffff1673ffffffffffffffffffffffffffffffffffffffff1681526020019081526020016000206001018190555060035442610f9a91906142fa565b600a60003373ffffffffffffffffffffffffffffffffffffffff1673ffffffffffffffffffffffffffffffffffffffff168152602001908152602001600020600201819055508282600a60003373ffffffffffffffffffffffffffffffffffffffff1673ffffffffffffffffffffffffffffffffffffffff1681526020019081526020016000206003019190611031929190613219565b506001600a60003373ffffffffffffffffffffffffffffffffffffffff1673ffffffffffffffffffffffffffffffffffffffff16815260200190815260200160002060040160006101000a81548160ff0219169083151502179055506001600660008282546110a091906142fa565b925050819055506001600760008282829054906101000a900467ffffffffffffffff166110cd91906145ee565b92506101000a81548167ffffffffffffffff021916908367ffffffffffffffff160217905550600b339080600181540180825580915050600190039060005260206000200160009091909190916101000a81548173ffffffffffffffffffffffffffffffffffffffff021916908373ffffffffffffffffffffffffffffffffffffffff1602179055506111e3600a60003373ffffffffffffffffffffffffffffffffffffffff1673ffffffffffffffffffffffffffffffffffffffff16815260200190815260200160002060010154600a60003373ffffffffffffffffffffffffffffffffffffffff1673ffffffffffffffffffffffffffffffffffffffff168152602001908152602001600020600301612422565b505050565b600760009054906101000a900467ffffffffffffffff1681565b60005b81518110156113ba5760008282815181106112235761122261407a565b5b60200260200101519050600073ffffffffffffffffffffffffffffffffffffffff168173ffffffffffffffffffffffffffffffffffffffff16141580156112ac575042600a60008373ffffffffffffffffffffffffffffffffffffffff1673ffffffffffffffffffffffffffffffffffffffff1681526020019081526020016000206002015410155b801561130b575060011515600a60008373ffffffffffffffffffffffffffffffffffffffff1673ffffffffffffffffffffffffffffffffffffffff16815260200190815260200160002060040160009054906101000a900460ff161515145b156113a65761134a3082601160009054906101000a900473ffffffffffffffffffffffffffffffffffffffff16600d6125af909392919063ffffffff16565b6000600a60008373ffffffffffffffffffffffffffffffffffffffff1673ffffffffffffffffffffffffffffffffffffffff16815260200190815260200160002060040160006101000a81548160ff0219169083151502179055505b5080806113b2906140d8565b915050611205565b5050565b62015180866113cd91906142fa565b85101561140f576040517f08c379a00000000000000000000000000000000000000000000000000000000081526004016114069061469e565b60405180910390fd5b60008054906101000a900473ffffffffffffffffffffffffffffffffffffffff1673ffffffffffffffffffffffffffffffffffffffff163373ffffffffffffffffffffffffffffffffffffffff1614611494576040517f82b4290000000000000000000000000000000000000000000000000000000000815260040160405180910390fd5b8873ffffffffffffffffffffffffffffffffffffffff166323b872dd33308b6040518463ffffffff1660e01b81526004016114d1939291906146be565b6020604051808303816000875af11580156114f0573d6000803e3d6000fd5b505050506040513d601f19601f820116820180604052508101906115149190614721565b50866004819055508688611528919061477d565b60058190555085600181905550846002819055508360038190555061155b600354600454611556919061477d565b61260f565b600960006101000a8154816bffffffffffffffffffffffff0219169083600b0b6bffffffffffffffffffffffff160217905550816015819055508060168190555082601460006101000a81548173ffffffffffffffffffffffffffffffffffffffff021916908373ffffffffffffffffffffffffffffffffffffffff16021790555061012c6001546115ed91906142fa565b60088190555088601160006101000a81548173ffffffffffffffffffffffffffffffffffffffff021916908373ffffffffffffffffffffffffffffffffffffffff16021790555061166d601160009054906101000a900473ffffffffffffffffffffffffffffffffffffffff166000600f61269a9092919063ffffffff16565b6116756121a8565b505050505050505050565b60006060600061168e6106d3565b90506000815111806116a257506008544210155b9250806040516020016116b5919061345a565b6040516020818303038152906040529150509250929050565b601260009054906101000a900473ffffffffffffffffffffffffffffffffffffffff1681565b600080838360405160200161170a929190614220565b6040516020818303038152906040529050601260009054906101000a900473ffffffffffffffffffffffffffffffffffffffff1673ffffffffffffffffffffffffffffffffffffffff1663a9904f9b3060135488856040518563ffffffff1660e01b815260040161177e949392919061426c565b61020060405180830381865afa15801561179c573d6000803e3d6000fd5b505050506040513d601f19601f820116820180604052508101906117c091906149b6565b60c001519150509392505050565b600081565b60008054906101000a900473ffffffffffffffffffffffffffffffffffffffff1681565b600a6020528060005260406000206000915090508060000160009054906101000a900467ffffffffffffffff169080600101549080600201549080600301805461184090614a13565b80601f016020809104026020016040519081016040528092919081815260200182805461186c90614a13565b80156118b95780601f1061188e576101008083540402835291602001916118b9565b820191906000526020600020905b81548152906001019060200180831161189c57829003601f168201915b5050505050908060040160009054906101000a900460ff16908060040160019054906101000a900460ff16905086565b60045481565b6119293082601160009054906101000a900473ffffffffffffffffffffffffffffffffffffffff16600d6125af909392919063ffffffff16565b611966601160009054906101000a900473ffffffffffffffffffffffffffffffffffffffff1630600084600f6126f890949392919063ffffffff16565b6001600660008282546119799190614a44565b925050819055506001600a60008373ffffffffffffffffffffffffffffffffffffffff1673ffffffffffffffffffffffffffffffffffffffff16815260200190815260200160002060040160016101000a81548160ff0219169083151502179055506000600a60008373ffffffffffffffffffffffffffffffffffffffff1673ffffffffffffffffffffffffffffffffffffffff16815260200190815260200160002060040160006101000a81548160ff0219169083151502179055506000600a60008373ffffffffffffffffffffffffffffffffffffffff1673ffffffffffffffffffffffffffffffffffffffff16815260200190815260200160002060000160009054906101000a900467ffffffffffffffff169050600b8167ffffffffffffffff1681548110611aaf57611aae61407a565b5b9060005260206000200160006101000a81549073ffffffffffffffffffffffffffffffffffffffff02191690555050565b60008054906101000a900473ffffffffffffffffffffffffffffffffffffffff1673ffffffffffffffffffffffffffffffffffffffff163373ffffffffffffffffffffffffffffffffffffffff1614611b65576040517f82b4290000000000000000000000000000000000000000000000000000000000815260040160405180910390fd5b806000806101000a81548173ffffffffffffffffffffffffffffffffffffffff021916908373ffffffffffffffffffffffffffffffffffffffff16021790555050565b60008373ffffffffffffffffffffffffffffffffffffffff168383604051602401611bd4929190614a78565b6040516020818303038152906040527f095ea7b3000000000000000000000000000000000000000000000000000000007bffffffffffffffffffffffffffffffffffffffffffffffffffffffff19166020820180517bffffffffffffffffffffffffffffffffffffffffffffffffffffffff8381831617835250505050604051611c5e9190614add565b6000604051808303816000865af19150503d8060008114611c9b576040519150601f19603f3d011682016040523d82523d6000602084013e611ca0565b606091505b5050905080611ce4576040517f08c379a0000000000000000000000000000000000000000000000000000000008152600401611cdb90614b40565b60405180910390fd5b50505050565b60165481565b60008054906101000a900473ffffffffffffffffffffffffffffffffffffffff1673ffffffffffffffffffffffffffffffffffffffff163373ffffffffffffffffffffffffffffffffffffffff1614611d75576040517f82b4290000000000000000000000000000000000000000000000000000000000815260040160405180910390fd5b8173ffffffffffffffffffffffffffffffffffffffff1663a9059cbb33836040518363ffffffff1660e01b8152600401611db0929190614a78565b6020604051808303816000875af1158015611dcf573d6000803e3d6000fd5b505050506040513d601f19601f82011682018060405250810190611df39190614721565b505050565b60025481565b600c60009054906101000a900473ffffffffffffffffffffffffffffffffffffffff1681565b600960009054906101000a9004600b0b81565b60155481565b600d8060000160009054906101000a900473ffffffffffffffffffffffffffffffffffffffff16908060010160009054906101000a900473ffffffffffffffffffffffffffffffffffffffff16905082565b6002544211611e9d57600080fd5b60008054906101000a900473ffffffffffffffffffffffffffffffffffffffff1673ffffffffffffffffffffffffffffffffffffffff163373ffffffffffffffffffffffffffffffffffffffff1614611f22576040517f82b4290000000000000000000000000000000000000000000000000000000000815260040160405180910390fd5b6000601160009054906101000a900473ffffffffffffffffffffffffffffffffffffffff1673ffffffffffffffffffffffffffffffffffffffff166370a08231306040518263ffffffff1660e01b8152600401611f7f9190613e25565b602060405180830381865afa158015611f9c573d6000803e3d6000fd5b505050506040513d601f19601f82011682018060405250810190611fc091906142cd565b90506000600f60010160009054906101000a900473ffffffffffffffffffffffffffffffffffffffff1673ffffffffffffffffffffffffffffffffffffffff1663899baaec601160009054906101000a900473ffffffffffffffffffffffffffffffffffffffff16306000866040518563ffffffff1660e01b815260040161204b9493929190614b60565b6040805180830381865afa158015612067573d6000803e3d6000fd5b505050506040513d601f19601f8201168201806040525081019061208b9190614bed565b5090506120c9601160009054906101000a900473ffffffffffffffffffffffffffffffffffffffff16600083600f61275a909392919063ffffffff16565b5050565b601a5481565b601160009054906101000a900473ffffffffffffffffffffffffffffffffffffffff1681565b8173ffffffffffffffffffffffffffffffffffffffff166345977d03826040518263ffffffff1660e01b815260040161213291906132d5565b600060405180830381600087803b15801561214c57600080fd5b505af1158015612160573d6000803e3d6000fd5b505050505050565b61012c610258826000815181106121825761218161407a565b5b60200260200101516121949190614c2d565b61219e91906142fa565b601a819055505050565b601760009054906101000a900473ffffffffffffffffffffffffffffffffffffffff1673ffffffffffffffffffffffffffffffffffffffff16635d3b1d30601854601760149054906101000a900467ffffffffffffffff16601960049054906101000a900461ffff16601960009054906101000a900463ffffffff16601960069054906101000a900463ffffffff166040518663ffffffff1660e01b8152600401612257959493929190614c7b565b6020604051808303816000875af1158015612276573d6000803e3d6000fd5b505050506040513d601f19601f8201168201806040525081019061229a91906142cd565b601b81905550565b6122fc84848484600067ffffffffffffffff8111156122c4576122c361353d565b5b6040519080825280601f01601f1916602001820160405280156122f65781602001600182028036833780820191505090505b506127ba565b50505050565b6000806000808860010160009054906101000a900473ffffffffffffffffffffffffffffffffffffffff1673ffffffffffffffffffffffffffffffffffffffff16635b534051898989896040518563ffffffff1660e01b815260040161236b9493929190614cef565b608060405180830381865afa158015612388573d6000803e3d6000fd5b505050506040513d601f19601f820116820180604052508101906123ac9190614d34565b935093509350935095509550955095915050565b61241b8585858585600067ffffffffffffffff8111156123e3576123e261353d565b5b6040519080825280601f01601f1916602001820160405280156124155781602001600182028036833780820191505090505b50612974565b5050505050565b6000816040516020016124359190614e2f565b6040516020818303038152906040529050601260009054906101000a900473ffffffffffffffffffffffffffffffffffffffff1673ffffffffffffffffffffffffffffffffffffffff166311df92f16013548584601460009054906101000a900473ffffffffffffffffffffffffffffffffffffffff166015546040518663ffffffff1660e01b81526004016124cf959493929190614e60565b6020604051808303816000875af11580156124ee573d6000803e3d6000fd5b505050506040513d601f19601f8201168201806040525081019061251291906142cd565b50601260009054906101000a900473ffffffffffffffffffffffffffffffffffffffff1673ffffffffffffffffffffffffffffffffffffffff1663473c45fe60135485846016546040518563ffffffff1660e01b81526004016125789493929190614eba565b600060405180830381600087803b15801561259257600080fd5b505af11580156125a6573d6000803e3d6000fd5b50505050505050565b61260984848484600067ffffffffffffffff8111156125d1576125d061353d565b5b6040519080825280601f01601f1916602001820160405280156126035781602001600182028036833780820191505090505b50612b31565b50505050565b60007fffffffffffffffffffffffffffffffffffffffff800000000000000000000000600b0b821215801561265357506b7fffffffffffffffffffffff600b0b8213155b612692576040517f08c379a000000000000000000000000000000000000000000000000000000000815260040161268990614f78565b60405180910390fd5b819050919050565b6126f3838383600067ffffffffffffffff8111156126bb576126ba61353d565b5b6040519080825280601f01601f1916602001820160405280156126ed5781602001600182028036833780820191505090505b50612ceb565b505050565b6127538585858585600067ffffffffffffffff81111561271b5761271a61353d565b5b6040519080825280601f01601f19166020018201604052801561274d5781602001600182028036833780820191505090505b50612ea2565b5050505050565b6127b484848484600067ffffffffffffffff81111561277c5761277b61353d565b5b6040519080825280601f01601f1916602001820160405280156127ae5781602001600182028036833780820191505090505b5061305f565b50505050565b8460000160009054906101000a900473ffffffffffffffffffffffffffffffffffffffff1673ffffffffffffffffffffffffffffffffffffffff166339255d5b8660010160009054906101000a900473ffffffffffffffffffffffffffffffffffffffff168760010160009054906101000a900473ffffffffffffffffffffffffffffffffffffffff1673ffffffffffffffffffffffffffffffffffffffff166362fc305e878988600067ffffffffffffffff81111561287d5761287c61353d565b5b6040519080825280601f01601f1916602001820160405280156128af5781602001600182028036833780820191505090505b506040516024016128c39493929190614f98565b604051602081830303815290604052915060e01b6020820180517bffffffffffffffffffffffffffffffffffffffffffffffffffffffff8381831617835250505050846040518463ffffffff1660e01b815260040161292493929190614fe4565b6000604051808303816000875af1158015612943573d6000803e3d6000fd5b505050506040513d6000823e3d601f19601f8201168201806040525081019061296c91906150cf565b505050505050565b8560000160009054906101000a900473ffffffffffffffffffffffffffffffffffffffff1673ffffffffffffffffffffffffffffffffffffffff166339255d5b8760010160009054906101000a900473ffffffffffffffffffffffffffffffffffffffff168860010160009054906101000a900473ffffffffffffffffffffffffffffffffffffffff1673ffffffffffffffffffffffffffffffffffffffff1663232d2b5889898989600067ffffffffffffffff811115612a3857612a3761353d565b5b6040519080825280601f01601f191660200182016040528015612a6a5781602001600182028036833780820191505090505b50604051602401612a7f959493929190615127565b604051602081830303815290604052915060e01b6020820180517bffffffffffffffffffffffffffffffffffffffffffffffffffffffff8381831617835250505050846040518463ffffffff1660e01b8152600401612ae093929190615181565b6000604051808303816000875af1158015612aff573d6000803e3d6000fd5b505050506040513d6000823e3d601f19601f82011682018060405250810190612b2891906150cf565b50505050505050565b8460000160009054906101000a900473ffffffffffffffffffffffffffffffffffffffff1673ffffffffffffffffffffffffffffffffffffffff166339255d5b8660010160009054906101000a900473ffffffffffffffffffffffffffffffffffffffff168760010160009054906101000a900473ffffffffffffffffffffffffffffffffffffffff1673ffffffffffffffffffffffffffffffffffffffff1663b4b333c6868989600067ffffffffffffffff811115612bf457612bf361353d565b5b6040519080825280601f01601f191660200182016040528015612c265781602001600182028036833780820191505090505b50604051602401612c3a94939291906151c6565b604051602081830303815290604052915060e01b6020820180517bffffffffffffffffffffffffffffffffffffffffffffffffffffffff8381831617835250505050846040518463ffffffff1660e01b8152600401612c9b93929190614fe4565b6000604051808303816000875af1158015612cba573d6000803e3d6000fd5b505050506040513d6000823e3d601f19601f82011682018060405250810190612ce391906150cf565b505050505050565b8360000160009054906101000a900473ffffffffffffffffffffffffffffffffffffffff1673ffffffffffffffffffffffffffffffffffffffff166339255d5b8560010160009054906101000a900473ffffffffffffffffffffffffffffffffffffffff168660010160009054906101000a900473ffffffffffffffffffffffffffffffffffffffff1673ffffffffffffffffffffffffffffffffffffffff1663d787840a8787600067ffffffffffffffff811115612dad57612dac61353d565b5b6040519080825280601f01601f191660200182016040528015612ddf5781602001600182028036833780820191505090505b50604051602401612df293929190615212565b604051602081830303815290604052915060e01b6020820180517bffffffffffffffffffffffffffffffffffffffffffffffffffffffff8381831617835250505050846040518463ffffffff1660e01b8152600401612e5393929190615181565b6000604051808303816000875af1158015612e72573d6000803e3d6000fd5b505050506040513d6000823e3d601f19601f82011682018060405250810190612e9b91906150cf565b5050505050565b8560000160009054906101000a900473ffffffffffffffffffffffffffffffffffffffff1673ffffffffffffffffffffffffffffffffffffffff166339255d5b8760010160009054906101000a900473ffffffffffffffffffffffffffffffffffffffff168860010160009054906101000a900473ffffffffffffffffffffffffffffffffffffffff1673ffffffffffffffffffffffffffffffffffffffff16632e5e74c689898989600067ffffffffffffffff811115612f6657612f6561353d565b5b6040519080825280601f01601f191660200182016040528015612f985781602001600182028036833780820191505090505b50604051602401612fad959493929190615250565b604051602081830303815290604052915060e01b6020820180517bffffffffffffffffffffffffffffffffffffffffffffffffffffffff8381831617835250505050846040518463ffffffff1660e01b815260040161300e93929190615181565b6000604051808303816000875af115801561302d573d6000803e3d6000fd5b505050506040513d6000823e3d601f19601f8201168201806040525081019061305691906150cf565b50505050505050565b8460000160009054906101000a900473ffffffffffffffffffffffffffffffffffffffff1673ffffffffffffffffffffffffffffffffffffffff166339255d5b8660010160009054906101000a900473ffffffffffffffffffffffffffffffffffffffff168760010160009054906101000a900473ffffffffffffffffffffffffffffffffffffffff1673ffffffffffffffffffffffffffffffffffffffff1663b96731c2888888600067ffffffffffffffff8111156131225761312161353d565b5b6040519080825280601f01601f1916602001820160405280156131545781602001600182028036833780820191505090505b5060405160240161316894939291906152aa565b604051602081830303815290604052915060e01b6020820180517bffffffffffffffffffffffffffffffffffffffffffffffffffffffff8381831617835250505050846040518463ffffffff1660e01b81526004016131c993929190615181565b6000604051808303816000875af11580156131e8573d6000803e3d6000fd5b505050506040513d6000823e3d601f19601f8201168201806040525081019061321191906150cf565b505050505050565b82805461322590614a13565b90600052602060002090601f016020900481019282613247576000855561328e565b82601f1061326057803560ff191683800117855561328e565b8280016001018555821561328e579182015b8281111561328d578235825591602001919060010190613272565b5b50905061329b919061329f565b5090565b5b808211156132b85760008160009055506001016132a0565b5090565b6000819050919050565b6132cf816132bc565b82525050565b60006020820190506132ea60008301846132c6565b92915050565b600073ffffffffffffffffffffffffffffffffffffffff82169050919050565b6000819050919050565b600061333561333061332b846132f0565b613310565b6132f0565b9050919050565b60006133478261331a565b9050919050565b60006133598261333c565b9050919050565b6133698161334e565b82525050565b60006020820190506133846000830184613360565b92915050565b600081519050919050565b600082825260208201905092915050565b6000819050602082019050919050565b60006133c1826132f0565b9050919050565b6133d1816133b6565b82525050565b60006133e383836133c8565b60208301905092915050565b6000602082019050919050565b60006134078261338a565b6134118185613395565b935061341c836133a6565b8060005b8381101561344d57815161343488826133d7565b975061343f836133ef565b925050600181019050613420565b5085935050505092915050565b6000602082019050818103600083015261347481846133fc565b905092915050565b60006134878261333c565b9050919050565b6134978161347c565b82525050565b60006134a88261333c565b9050919050565b6134b88161349d565b82525050565b60006040820190506134d3600083018561348e565b6134e060208301846134af565b9392505050565b6000604051905090565b600080fd5b600080fd5b613504816132bc565b811461350f57600080fd5b50565b600081359050613521816134fb565b92915050565b600080fd5b6000601f19601f8301169050919050565b7f4e487b7100000000000000000000000000000000000000000000000000000000600052604160045260246000fd5b6135758261352c565b810181811067ffffffffffffffff821117156135945761359361353d565b5b80604052505050565b60006135a76134e7565b90506135b3828261356c565b919050565b600067ffffffffffffffff8211156135d3576135d261353d565b5b602082029050602081019050919050565b600080fd5b60006135fc6135f7846135b8565b61359d565b9050808382526020820190506020840283018581111561361f5761361e6135e4565b5b835b8181101561364857806136348882613512565b845260208401935050602081019050613621565b5050509392505050565b600082601f83011261366757613666613527565b5b81356136778482602086016135e9565b91505092915050565b60008060408385031215613697576136966134f1565b5b60006136a585828601613512565b925050602083013567ffffffffffffffff8111156136c6576136c56134f6565b5b6136d285828601613652565b9150509250929050565b600080fd5b60008083601f8401126136f7576136f6613527565b5b8235905067ffffffffffffffff811115613714576137136136dc565b5b6020830191508360018202830111156137305761372f6135e4565b5b9250929050565b6000806000604084860312156137505761374f6134f1565b5b600061375e86828701613512565b935050602084013567ffffffffffffffff81111561377f5761377e6134f6565b5b61378b868287016136e1565b92509250509250925092565b60008083601f8401126137ad576137ac613527565b5b8235905067ffffffffffffffff8111156137ca576137c96136dc565b5b6020830191508360018202830111156137e6576137e56135e4565b5b9250929050565b60008060208385031215613804576138036134f1565b5b600083013567ffffffffffffffff811115613822576138216134f6565b5b61382e85828601613797565b92509250509250929050565b6000613845826133b6565b9050919050565b6138558161383a565b811461386057600080fd5b50565b6000813590506138728161384c565b92915050565b600060ff82169050919050565b61388e81613878565b811461389957600080fd5b50565b6000813590506138ab81613885565b92915050565b600381106138be57600080fd5b50565b6000813590506138d0816138b1565b92915050565b600080600080600080600060a0888a0312156138f5576138f46134f1565b5b60006139038a828b01613863565b97505060206139148a828b0161389c565b96505060406139258a828b016138c1565b955050606088013567ffffffffffffffff811115613946576139456134f6565b5b6139528a828b016136e1565b9450945050608088013567ffffffffffffffff811115613975576139746134f6565b5b6139818a828b016136e1565b925092505092959891949750929550565b600061399d8261333c565b9050919050565b6139ad81613992565b82525050565b60006020820190506139c860008301846139a4565b92915050565b600080602083850312156139e5576139e46134f1565b5b600083013567ffffffffffffffff811115613a0357613a026134f6565b5b613a0f858286016136e1565b92509250509250929050565b600067ffffffffffffffff82169050919050565b613a3881613a1b565b82525050565b6000602082019050613a536000830184613a2f565b92915050565b600067ffffffffffffffff821115613a7457613a7361353d565b5b602082029050602081019050919050565b613a8e816133b6565b8114613a9957600080fd5b50565b600081359050613aab81613a85565b92915050565b6000613ac4613abf84613a59565b61359d565b90508083825260208201905060208402830185811115613ae757613ae66135e4565b5b835b81811015613b105780613afc8882613a9c565b845260208401935050602081019050613ae9565b5050509392505050565b600082601f830112613b2f57613b2e613527565b5b8135613b3f848260208601613ab1565b91505092915050565b600060208284031215613b5e57613b5d6134f1565b5b600082013567ffffffffffffffff811115613b7c57613b7b6134f6565b5b613b8884828501613b1a565b91505092915050565b6000613b9c826133b6565b9050919050565b613bac81613b91565b8114613bb757600080fd5b50565b600081359050613bc981613ba3565b92915050565b60008060008060008060008060006101208a8c031215613bf257613bf16134f1565b5b6000613c008c828d01613bba565b9950506020613c118c828d01613512565b9850506040613c228c828d01613512565b9750506060613c338c828d01613512565b9650506080613c448c828d01613512565b95505060a0613c558c828d01613512565b94505060c0613c668c828d01613863565b93505060e0613c778c828d01613512565b925050610100613c898c828d01613512565b9150509295985092959850929598565b60008115159050919050565b613cae81613c99565b82525050565b600081519050919050565b600082825260208201905092915050565b60005b83811015613cee578082015181840152602081019050613cd3565b83811115613cfd576000848401525b50505050565b6000613d0e82613cb4565b613d188185613cbf565b9350613d28818560208601613cd0565b613d318161352c565b840191505092915050565b6000604082019050613d516000830185613ca5565b8181036020830152613d638184613d03565b90509392505050565b6000613d778261333c565b9050919050565b613d8781613d6c565b82525050565b6000602082019050613da26000830184613d7e565b92915050565b6000819050919050565b613dbb81613da8565b82525050565b6000602082019050613dd66000830184613db2565b92915050565b600063ffffffff82169050919050565b613df581613ddc565b82525050565b6000602082019050613e106000830184613dec565b92915050565b613e1f816133b6565b82525050565b6000602082019050613e3a6000830184613e16565b92915050565b600060208284031215613e5657613e556134f1565b5b6000613e6484828501613a9c565b91505092915050565b600081519050919050565b600082825260208201905092915050565b6000613e9482613e6d565b613e9e8185613e78565b9350613eae818560208601613cd0565b613eb78161352c565b840191505092915050565b600060c082019050613ed76000830189613a2f565b613ee460208301886132c6565b613ef160408301876132c6565b8181036060830152613f038186613e89565b9050613f126080830185613ca5565b613f1f60a0830184613ca5565b979650505050505050565b600080600060608486031215613f4357613f426134f1565b5b6000613f5186828701613863565b9350506020613f6286828701613a9c565b9250506040613f7386828701613512565b9150509250925092565b60008060408385031215613f9457613f936134f1565b5b6000613fa285828601613bba565b9250506020613fb385828601613512565b9150509250929050565b6000613fc88261333c565b9050919050565b613fd881613fbd565b82525050565b6000602082019050613ff36000830184613fcf565b92915050565b600081600b0b9050919050565b61400f81613ff9565b82525050565b600060208201905061402a6000830184614006565b92915050565b600061403b8261333c565b9050919050565b61404b81614030565b82525050565b6000604082019050614066600083018561348e565b6140736020830184614042565b9392505050565b7f4e487b7100000000000000000000000000000000000000000000000000000000600052603260045260246000fd5b7f4e487b7100000000000000000000000000000000000000000000000000000000600052601160045260246000fd5b60006140e3826132bc565b91507fffffffffffffffffffffffffffffffffffffffffffffffffffffffffffffffff8203614115576141146140a9565b5b600182019050919050565b60006040820190506141356000830185613e16565b6141426020830184613e16565b9392505050565b7f513a497320757365722000000000000000000000000000000000000000000000815250565b600081905092915050565b82818337600083830152505050565b6000614195838561416f565b93506141a283858461417a565b82840190509392505050565b7f2061206c65676974696d617465206163636f756e743f20413a3120666f72207960008201527f65732e203020666f72206e6f2e00000000000000000000000000000000000000602082015250565b600061420a602d8361416f565b9150614215826141ae565b602d82019050919050565b600061422b82614149565b600a8201915061423c828486614189565b9150614247826141fd565b91508190509392505050565b6000819050919050565b61426681614253565b82525050565b60006080820190506142816000830187613e16565b61428e602083018661425d565b61429b60408301856132c6565b81810360608301526142ad8184613d03565b905095945050505050565b6000815190506142c7816134fb565b92915050565b6000602082840312156142e3576142e26134f1565b5b60006142f1848285016142b8565b91505092915050565b6000614305826132bc565b9150614310836132bc565b9250827fffffffffffffffffffffffffffffffffffffffffffffffffffffffffffffffff03821115614345576143446140a9565b5b828201905092915050565b61435981613878565b82525050565b7f4e487b7100000000000000000000000000000000000000000000000000000000600052602160045260246000fd5b6003811061439f5761439e61435f565b5b50565b60008190506143b08261438e565b919050565b60006143c0826143a2565b9050919050565b6143d0816143b5565b82525050565b60006143e28385613e78565b93506143ef83858461417a565b6143f88361352c565b840190509392505050565b600060a082019050614418600083018a613360565b6144256020830189614350565b61443260408301886143c7565b81810360608301526144458186886143d6565b9050818103608083015261445a8184866143d6565b905098975050505050505050565b60008151905061447781613ba3565b92915050565b600060208284031215614493576144926134f1565b5b60006144a184828501614468565b91505092915050565b7f43616d706169676e206861732079657420746f20626567696e00000000000000600082015250565b60006144e0601983613e78565b91506144eb826144aa565b602082019050919050565b6000602082019050818103600083015261450f816144d3565b9050919050565b7f43616d706169676e2068617320656e6465640000000000000000000000000000600082015250565b600061454c601283613e78565b915061455782614516565b602082019050919050565b6000602082019050818103600083015261457b8161453f565b9050919050565b7f43616d706169676e2069732066756c6c79207375627363726962656400000000600082015250565b60006145b8601c83613e78565b91506145c382614582565b602082019050919050565b600060208201905081810360008301526145e7816145ab565b9050919050565b60006145f982613a1b565b915061460483613a1b565b92508267ffffffffffffffff03821115614621576146206140a9565b5b828201905092915050565b7f456e642064617465206d757374206265206174206c656173742031206461792060008201527f6166746572207374617274000000000000000000000000000000000000000000602082015250565b6000614688602b83613e78565b91506146938261462c565b604082019050919050565b600060208201905081810360008301526146b78161467b565b9050919050565b60006060820190506146d36000830186613e16565b6146e06020830185613e16565b6146ed60408301846132c6565b949350505050565b6146fe81613c99565b811461470957600080fd5b50565b60008151905061471b816146f5565b92915050565b600060208284031215614737576147366134f1565b5b60006147458482850161470c565b91505092915050565b7f4e487b7100000000000000000000000000000000000000000000000000000000600052601260045260246000fd5b6000614788826132bc565b9150614793836132bc565b9250826147a3576147a261474e565b5b828204905092915050565b600080fd5b6000815190506147c281613a85565b92915050565b6000815190506147d78161384c565b92915050565b600060e082840312156147f3576147f26147ae565b5b6147fd60e061359d565b9050600061480d8482850161470c565b60008301525060206148218482850161470c565b60208301525060406148358482850161470c565b60408301525060606148498482850161470c565b606083015250608061485d8482850161470c565b60808301525060a0614871848285016142b8565b60a08301525060c0614885848285016142b8565b60c08301525092915050565b61489a81613da8565b81146148a557600080fd5b50565b6000815190506148b781614891565b92915050565b600061020082840312156148d4576148d36147ae565b5b6148df61014061359d565b905060006148ef848285016147b3565b6000830152506020614903848285016147b3565b6020830152506040614917848285016147c8565b604083015250606061492b8482850161470c565b606083015250608061493f848285016147dd565b608083015250610160614954848285016148a8565b60a083015250610180614969848285016148a8565b60c0830152506101a061497e848285016142b8565b60e0830152506101c0614993848285016142b8565b610100830152506101e06149a9848285016142b8565b6101208301525092915050565b600061020082840312156149cd576149cc6134f1565b5b60006149db848285016148bd565b91505092915050565b7f4e487b7100000000000000000000000000000000000000000000000000000000600052602260045260246000fd5b60006002820490506001821680614a2b57607f821691505b602082108103614a3e57614a3d6149e4565b5b50919050565b6000614a4f826132bc565b9150614a5a836132bc565b925082821015614a6d57614a6c6140a9565b5b828203905092915050565b6000604082019050614a8d6000830185613e16565b614a9a60208301846132c6565b9392505050565b600081905092915050565b6000614ab782613cb4565b614ac18185614aa1565b9350614ad1818560208601613cd0565b80840191505092915050565b6000614ae98284614aac565b915081905092915050565b7f455243323020746f6b656e20617070726f76616c206661696c65640000000000600082015250565b6000614b2a601b83613e78565b9150614b3582614af4565b602082019050919050565b60006020820190508181036000830152614b5981614b1d565b9050919050565b6000608082019050614b7560008301876139a4565b614b826020830186613e16565b614b8f6040830185613dec565b614b9c60608301846132c6565b95945050505050565b60006fffffffffffffffffffffffffffffffff82169050919050565b614bca81614ba5565b8114614bd557600080fd5b50565b600081519050614be781614bc1565b92915050565b60008060408385031215614c0457614c036134f1565b5b6000614c12858286016142b8565b9250506020614c2385828601614bd8565b9150509250929050565b6000614c38826132bc565b9150614c43836132bc565b925082614c5357614c5261474e565b5b828206905092915050565b600061ffff82169050919050565b614c7581614c5e565b82525050565b600060a082019050614c90600083018861425d565b614c9d6020830187613a2f565b614caa6040830186614c6c565b614cb76060830185613dec565b614cc46080830184613dec565b9695505050505050565b6000614cd98261333c565b9050919050565b614ce981614cce565b82525050565b6000608082019050614d046000830187614ce0565b614d116020830186613e16565b614d1e6040830185613dec565b614d2b6060830184613e16565b95945050505050565b60008060008060808587031215614d4e57614d4d6134f1565b5b6000614d5c8782880161470c565b9450506020614d6d8782880161470c565b9350506040614d7e87828801614bd8565b9250506060614d8f878288016142b8565b91505092959194509250565b60008190508160005260206000209050919050565b60008154614dbd81614a13565b614dc7818661416f565b94506001821660008114614de25760018114614df357614e26565b60ff19831686528186019350614e26565b614dfc85614d9b565b60005b83811015614e1e57815481890152600182019150602081019050614dff565b838801955050505b50505092915050565b6000614e3a82614149565b600a82019150614e4a8284614db0565b9150614e55826141fd565b915081905092915050565b600060a082019050614e75600083018861425d565b614e8260208301876132c6565b8181036040830152614e948186613d03565b9050614ea36060830185613360565b614eb060808301846132c6565b9695505050505050565b6000608082019050614ecf600083018761425d565b614edc60208301866132c6565b8181036040830152614eee8185613d03565b9050614efd60608301846132c6565b95945050505050565b7f53616665436173743a2076616c756520646f65736e27742066697420696e203960008201527f3620626974730000000000000000000000000000000000000000000000000000602082015250565b6000614f62602683613e78565b9150614f6d82614f06565b604082019050919050565b60006020820190508181036000830152614f9181614f55565b9050919050565b6000608082019050614fad6000830187614ce0565b614fba6020830186613e16565b614fc76040830185614006565b8181036060830152614fd98184613d03565b905095945050505050565b6000606082019050614ff96000830186614042565b818103602083015261500b8185613d03565b9050818103604083015261501f8184613d03565b9050949350505050565b600080fd5b600067ffffffffffffffff8211156150495761504861353d565b5b6150528261352c565b9050602081019050919050565b600061507261506d8461502e565b61359d565b90508281526020810184848401111561508e5761508d615029565b5b615099848285613cd0565b509392505050565b600082601f8301126150b6576150b5613527565b5b81516150c684826020860161505f565b91505092915050565b6000602082840312156150e5576150e46134f1565b5b600082015167ffffffffffffffff811115615103576151026134f6565b5b61510f848285016150a1565b91505092915050565b61512181614ba5565b82525050565b600060a08201905061513c6000830188614ce0565b6151496020830187613dec565b6151566040830186613e16565b6151636060830185615118565b81810360808301526151758184613d03565b90509695505050505050565b600060608201905061519660008301866134af565b81810360208301526151a88185613d03565b905081810360408301526151bc8184613d03565b9050949350505050565b60006080820190506151db6000830187614ce0565b6151e86020830186613e16565b6151f56040830185613e16565b81810360608301526152078184613d03565b905095945050505050565b60006060820190506152276000830186614ce0565b6152346020830185613dec565b81810360408301526152468184613d03565b9050949350505050565b600060a0820190506152656000830188614ce0565b6152726020830187613e16565b61527f6040830186613dec565b61528c6060830185613e16565b818103608083015261529e8184613d03565b90509695505050505050565b60006080820190506152bf6000830187614ce0565b6152cc6020830186613dec565b6152d960408301856132c6565b81810360608301526152eb8184613d03565b90509594505050505056fea2646970667358221220e8889fc5a0a4618dc284285dc040f2030947eecfef0a525596dc507d07a1537864736f6c634300080e0033",
  "linkReferences": {},
  "deployedLinkReferences": {}
}